:020000040800F2
:100000005804002001010008070E00087B0D0008BD
:10001000050E00086D010008ED100008000000004A
:100020000000000000000000000000000B0E0008AF
:100030006F01000800000000090E00080D0E000806
:100040001B0100081B0100081B0100081B01000820
:100050001B0100081B0100081B0100081B01000810
:100060001B0100081B0100081B0100081B01000800
:100070001B0100081B0100081B0100081B010008F0
:100080001B0100081B0100081B0100081B010008E0
:100090001B0100081B0100081B010008710100087A
:1000A0001B0100081B0100081B0100081B010008C0
:1000B0001B0100081B0100081B0100081B010008B0
:1000C0001B0100081B0100081B0100081B010008A0
:1000D0001B010008E11000081B0100081B010008BB
:1000E0001B0100081B0100081B010008DFF80CD0F1
:1000F00000F02AF8004800472D110008580400209D
:100100000648804706480047FEE7FEE7FEE7FEE7B1
:10011000FEE7FEE7FEE7FEE7FEE7FEE7550E000816
:10012000ED000008D2B201E000F8012B491EFBD21D
:1001300070470022F6E710B513460A4604461946F2
:10014000FFF7F0FF204610BD064C074D06E0E068C3
:1001500040F0010394E8070098471034AC42F6D30E
:10016000FFF7C8FF7C1100089C110008FEE77047EC
:100170004FF4007000F074B810B590F8211000240E
:10018000022903D00421816301243DE001680A684B
:1001900022F00E020A6001680A6822F001020A6079
:1001A0001A4A0168914201D1012121E0174A143213
:1001B000914201D110211BE0144A2832914201D111
:1001C000891515E0114A3C32914201D189140FE0A2
:1001D0000E4A5032914202D14FF4803108E00B4A6E
:1001E0006432914202D14FF4801101E04FF08071EE
:1001F000064A083A5160012180F82110002180F858
:100200002010416B01B18847204610BD0800024014
:1002100010B5B0F5007F15D100F026F90A4CC838AA
:10022000216888420BD94FF40051084800F014F9B6
:100230004FF4FA730B2206A1084800F040FD00F0CD
:1002400013F9206010BD00000000002000100140E4
:1002500048656C6C6F20576F726C6400140000204E
:10026000044910B50A68024202D00860FFF7D0FFC7
:1002700010BD0000140401402DE9F84FDFF8B891DB
:10028000002409F1040A0AF1040B23460F270BF19D
:10029000040EC9E00125A5402A40AA427DD1674E3F
:1002A000D1F804C0ACEB0608B44532D014DCBCF184
:1002B000030F3AD009DCBCF1000F2AD0BCF1010FCA
:1002C0001CD0BCF1020F31D11DE0BCF1110F17D0D1
:1002D000BCF1120F2AD119E0B8F5881F19D006DC3D
:1002E000B8F5803F15D0B8F5801F1FD111E0B8F5E3
:1002F000001F0ED0B8F5041F18D10AE0CB6815E036
:10030000CB681B1D12E0CB6808330FE0CB680C33C1
:100310000CE08B682BB1012B4FF0080303D0456133
:1003200004E0042302E0056100E00023FF2A01D875
:10033000064601E000F104064FEA840501D9A5F163
:100340002005D6F8008007FA05FC28EA0C0803FA15
:1003500005F548EA0508C6F800804D68ED0062D54D
:10036000374DAE6946F00106AE61AD6924F0030673
:1003700005F001050095334D06EB050CDCF808503F
:10038000A607360F07FA06F825EA0805DFF8B88051
:10039000404503D14FF0000817E044E0DFF8AC809F
:1003A000404502D14FF001080FE0DFF8A48040453E
:1003B00002D14FF0020808E0DFF89880404502D1F2
:1003C0004FF0030801E04FF0040808FA06F848EA85
:1003D0000508CCF808804D68D9F80060ED034D465B
:1003E00001D5164300E096432E604D68DAF80060B0
:1003F000AD03554601D5164300E096432E604D6887
:10040000DBF80060ED025D4601D5164300E096433F
:100410002E604D68DEF80060AD02754601D51643CA
:1004200000E096432E60641C0D682A46E5407FF488
:1004300031AFBDE8F88F000000040140000011104A
:10044000001002400000014000080140000C014083
:100450000010014000140140C2680A4201D041610D
:1004600070470161704700000148806870470000D4
:1004700004000020024881680278114481607047BE
:1004800004000020074810B5016841F01001016028
:10049000032000F075F8002000F006F800F024F8C2
:1004A000002010BD0020024070B50D4D04464FF4F1
:1004B0007A712878B1FBF0F00A490968B1FBF0F0D5
:1004C00000F0ECFA48B9102C07D200222146501E49
:1004D00000F036F800206C6070BD012070BD000097
:1004E00004000020100000200C4808B5816941F08C
:1004F00001018161816901F001010091C16941F04F
:100500008051C161C06900F080500090044841688A
:1005100021F0E06141F00071416008BD001002402F
:1005200000000140002809DB00F01F02012191407A
:100530004009800000F1E020C0F800117047000081
:10054000F0B40E4B1B680C46C3F30223C3F107053E
:10055000042D00D90425191D072901D2002300E02C
:10056000DB1E012606FA05F1491E214099409E40F6
:10057000761E16403143F0BC00F0B9BD0CED00E032
:10058000064900F0070208684FF6FF03184040EAEA
:100590000220034A10430860704700000CED00E0A1
:1005A0000000FA052DE9F0470F46050061D0434EE3
:1005B000306800F00700B84209D2306820F0070028
:1005C00038433060306800F00700B84251D12868E5
:1005D0003B4C810712D5400703D5606840F4E060CA
:1005E00060602878000703D5606840F46050606060
:1005F0006068A96820F0F000084360602878C007B0
:1006000028D06868012810D02168022810D08907F6
:1006100000292EDA616821F0030101436160FFF7D0
:1006200023FF804641F288390DE021688903EFE716
:100630008901EDE7FFF718FFA0EB0801494502D952
:100640000320BDE8F0876068696800F00C00B0EB3B
:10065000810FEFD1306800F00700B8420BD9306845
:1006600020F0070038433060306800F00700B842DF
:1006700001D00120E5E72878400705D56068E968E2
:1006800020F4E060084360602878000706D56068C1
:10069000296920F4605040EAC100606000F038F839
:1006A0006168084AC1F30311515CC84006490860FB
:1006B00006480068FFF7F8FE0020C2E7002002406D
:1006C0000010024064110008100000200800002003
:1006D0000448054900684968044AC1F30221515C95
:1006E000C84070471000002000100240741100083C
:1006F0000448054900684968044AC1F3C221515CB5
:10070000C84070471000002000100240741100081B
:1007100012A185B00FC98DE80F0014A0144A00681B
:1007200004905168134801F00C03042B10D0082BDF
:100730000ED1C1F38343C9031DF803000AD55168E4
:1007400004AAC1F34041515C0A4A5043B0FBF1F0A6
:1007500005B0704708494843FAE700000203040562
:10076000060708090A0B0C0D0E0F101001020000FD
:100770000010024000127A0000093D002DE9F84FF8
:10078000040070D02078C04DC00749D06868C0F31D
:100790008100012807D06868C0F38100022809D1D0
:1007A0006868C00306D52868800339D560680028CA
:1007B000E7D035E06068B0F5803F0BD010B1B0F500
:1007C000A02F11D0286820F480302860286820F4F9
:1007D000802002E0286840F480302860606890B192
:1007E000FFF742FE06460AE0286840F480202860B1
:1007F000F0E700BFFFF738FE801B642873D8286835
:100800008003F7D50CE0FFF72FFE064605E000BF9A
:10081000FFF72AFE801B6428F0D828688003F7D4ED
:1008200020789A4E80074FF001094FF0000839D523
:10083000686810F00C0F07D06868C0F381000228C8
:1008400009D16868C00306D42868800714D52069D8
:10085000012808D110E02069B0B1C6F80090FFF778
:1008600003FE074605E00AE1FFF7FEFDC01B022874
:10087000C4D828688007F7D52868616920F0F80097
:1008800040EAC10028600DE0C6F80080FFF7ECFDEB
:10089000074604E0FFF7E8FDC01B022823D82868BC
:1008A0008007F7D4207800072CD57948A169D9B101
:1008B000C0F80090FFF7D8FD074604E0FFF7D4FD2D
:1008C000C01B02280FD8686A8007F7D571484FF41B
:1008D000FA510068B0FBF1F0009000BF0098411E93
:1008E0000091FAD20EE080E0C0F80080FFF7BCFD76
:1008F000074604E0FFF7B8FDC01B022875D8686AF8
:100900008007F7D42078400760D5E8690027C00049
:1009100008D4E86940F08050E861E869012700F0F8
:10092000805000905C480168C90513D40168834673
:1009300041F480710160FFF797FD824606E000BF39
:10094000FFF792FDA0EB0A0064284ED8DBF8000008
:10095000C005F5D5E06801280AD008B1052813D0F4
:10096000286A20F001002862286A20F0040002E0D2
:10097000286A40F001002862E06841F2883B98B1A3
:10098000FFF772FD82460BE0286A40F004002862FF
:10099000EEE700BFFFF768FDA0EB0A0159455AD802
:1009A000286A8007F6D50CE0FFF75EFD824605E079
:1009B000FFF75AFDA0EB0A0159454CD8286A800779
:1009C000F6D41FB1E86920F08050E861E06988B38F
:1009D0006968C1F38101022944D00228C6F8608009
:1009E00004D0FFF741FD044638E034E0FFF73CFD5A
:1009F000074604E0FFF738FDC01B02282BD8286803
:100A00008001F7D4206AB0F5803F05D16868A168FD
:100A100020F4003008436860D4E90801084369689D
:100A200021F4741108436860C6F86090FFF71CFD5C
:100A3000044606E025E000BFFFF716FD001B022874
:100A400009D828688001F7D51BE000BFFFF70CFD2F
:100A5000001B022802D90320BDE8F88F2868800116
:100A6000F4D40EE00128F7D06868226A00F48031DF
:100A7000914204D1616A00F47010884201D00120D3
:100A8000EAE70020E8E700000010024000004242D0
:100A900080044242100000200070004010B5401E4B
:100AA000B0F1807F01D3012010BD4FF0E0246061E0
:100AB0000F21601700F01BFB0020A06107202061C0
:100AC000002010BD7047000070B502680446106831
:100AD000D168536910F00F0F50D003F0010501F4F5
:100AE000907635435DD0C20705D0CA0503D5E26BC9
:100AF00042F00102E263420705D5DA0703D0E26B58
:100B000042F00202E263820705D5DA0703D0E26B06
:100B100042F00402E263020705D5DA0703D0E26B74
:100B200042F00802E263E26B002A33D0800604D56B
:100B3000880602D5204600F0C7F920684069E16BBD
:100B4000C0F38010090700D428B3204600F0AEF9A6
:100B50002068416949061AD5416921F04001416187
:100B6000606BA0B11B494163606BFFF705FB002878
:100B700010D0606B416BBDE870400847830610D50C
:100B80008B060ED52046BDE8704000F09DB920468A
:100B9000FFF798FF70BD2046FFF794FF0020E06349
:100BA00070BD030606D50B0604D52046BDE870408F
:100BB00000F032BA4006F3D54806F1D5D168204698
:100BC00021F04001D160202184F8391000F0D4F8E0
:100BD00070BD00009D0E000870B5040004D094F8AC
:100BE0003900002510B106E0012070BD84F83850AE
:100BF000204600F023F8242084F839002068C168DA
:100C000021F40051C160204600F0AAF92068016972
:100C100021F4904101612068416921F02A0141617C
:100C20002068C16841F40051C160E563202084F868
:100C3000390084F83A00002070BD000030B585B05E
:100C40000024009401940294039400681849884297
:100C50002CD11848816941F480418161816901F496
:100C600080410491816941F0040181618069124DE4
:100C700000F0040004904FF40070009002200190F6
:100C80000320039069462846FFF7F6FA2815CDE9B8
:100C90000004694628460294FFF7EEFA0022114646
:100CA0002520FFF74DFC2520FFF73CFC05B030BDAB
:100CB00000380140001002400008014070472DE953
:100CC000F843044690F839001F4616460D46202882
:100CD00050D1A5B19EB194F8380001284AD0012026
:100CE00084F838004FF00008C4F83C80212084F8D4
:100CF0003900FFF7B9FBA6848146E68426E001208F
:100D0000BDE8F883E08C401EE084A0684B46B0F557
:100D1000805F4FF000024FF080012046009703D023
:100D200000F0ABF9E8B90DE000F0A7F9C8B92888E0
:100D30002168C0F308004860206908B16D1C05E017
:100D4000AD1C03E0216815F8010B4860E08C002819
:100D5000D8D14B46002240212046009700F08DF963
:100D600008B10320CCE7202084F8390084F83880CB
:100D70000020C5E70220C3E77047FEE730B585B025
:100D80001C4C00200290A06940F01000A061A069F6
:100D9000012500F0100004904FF40050CDE900054B
:100DA0000220039069461448FFF766FAA06940F0F4
:100DB0000400A061A06900F004000490A06940F064
:100DC0000800A061A069694600F008000490601561
:100DD00000900A48CDE901050948FFF74DFA0022C5
:100DE00011461720FFF7ACFB1720FFF79BFB05B060
:100DF00030BD000000100240001001400000211032
:100E0000000C0140FEE7704770477047FFF732BBA8
:100E100010B590B028216846FFF78BF914210AA875
:100E2000FFF787F902200090012004901020002491
:100E3000059007946846FFF7A1FC0F20CDE90A044E
:100E40000C940D9400210AA80E94FFF7ABFB10B090
:100E500010BD00000D48016841F0010101604168CA
:100E60000B4A1140416001680A4A11400160016863
:100E700021F480210160416821F4FE0141604FF4BA
:100E80001F0181600449C0030860704700100240E0
:100E90000000FFF8FFFFF6FE08ED00E010B5406A25
:100EA0000021C185C184FFF70DFE10BD0168CA682D
:100EB00022F49072CA6001684A6922F001024A6114
:100EC000202180F83A10704710B590F83A10222986
:100ED00001D0022010BD8168B1F5805F11D0016999
:100EE000002901681FD0496801F07F03816A4A1C0C
:100EF00082620B70C18D491E0904090CC18518D08E
:100F00002BE00269816A002A0268526805D0D2B2D9
:100F10000A80816A491C8162ECE7C2F308020A80F8
:100F2000816A891CF7E74A68816A4B1C83620A70F0
:100F3000E0E70168CA6822F02002CA600168CA6856
:100F400022F48072CA6001684A6922F001024A6193
:100F5000202180F83A10FFF7B1FE002010BD0000FC
:100F60002DE9F041044600680169E26821F440512E
:100F7000114301612169A068084361690843216840
:100F8000CA6841F20C639A430243CA60206841690F
:100F9000A26921F44071114341611E492068642512
:100FA0003226884202D1FFF7A3FB01E0FFF790FB56
:100FB00000EBC00101EB001160686FF018078000C2
:100FC000B1FBF0F2B2FBF5F2B1FBF0F37A4303EBC5
:100FD0008202B1FBF0F306EB0212B2FBF5F2B3FBB7
:100FE000F5F302F0F00202EB0312B1FBF0F3B1FBF8
:100FF000F0F0B0FBF5F0784303EB800006EB001057
:10100000B0FBF5F0216800F00F0010448860BDE8E7
:10101000F08100000038014090F83910212901D0FA
:10102000022070478168B1F5805F016A0BD04A1CCD
:101030000262026809785160C18C491E0904090CDA
:10104000C1840ED017E009880268C1F3080151601D
:1010500001690029016A02D0491C0162ECE7891C80
:10106000FBE70168CA6822F08002CA600068C168B4
:1010700041F04001C160002070472DE9F0419846E1
:1010800017460E460446069D1DE0681C1BD02DB178
:10109000FFF7EAF9A0EB0800A84214D92068C1685C
:1010A00021F4D071C1602068416921F001014161E2
:1010B000202084F8390084F83A00002084F83800B1
:1010C0000320BDE8F0812068006836EA000004D003
:1010D0000020B842D9D00020F3E70120F9E7000052
:1010E0000148FFF7F1BC000014000020FEE70907EB
:1010F000090E002804DB00F1E02080F8001470479E
:1011000000F00F0000F1E02080F8141D704702E0AD
:1011100008C8121F08C1002AFAD170477047002082
:1011200001E001C1121F002AFBD17047FFF7AAF9A5
:10113000FFF76EFEFFF722FE094808490C22016006
:101140004FF41651416000218160C160C0E9041272
:101150008161C161FFF740FDFEE7000000380140FA
:101160001400002000000000000000000102030441
:101170000607080900000000010203049C11000892
:1011800000000020140000000E110008B01100083B
:1011900014000020440400001E110008000000009C
:1011A0000100000010000000000000000024F40016
:04000005080000ED02
:00000001FF
